:100000008CAEFF1F25060000335600004556000049
:1000100067560000715600007B560000000000008B
:100020000000000000000000000000006F0500005C
:10003000710500000000000073050000B1550000CC
:1000400077050000790500007B0500007D050000B4
:100050007F05000081050000830500008505000084
:1000600087050000890500008B0500008D05000054
:100070008F05000091050000930500009505000024
:100080009705000000000000990500009B05000096
:100090009D0500009F050000A1050000A3050000CC
:1000A000A5050000A7050000A9050000AB0500009C
:1000B000AD050000AF050000B1050000B30500006C
:1000C000B5050000B7050000B9050000BB0500003C
:1000D000BD050000BF050000C1050000C30500000C
:1000E000C5050000C7050000C905000000000000AC
:1000F000CB050000CD050000CF050000D1050000B4
:10010000D3050000D5050000D7050000D905000083
:10011000DB050000DD050000DF050000E105000053
:10012000E3050000E5050000E7050000E905000023
:10013000EB050000ED050000EF050000F1050000F3
:10014000F3050000F5050000F7050000F9050000C3
:10015000FB050000FD050000FF0500000106000092
:1001600003060000852200000706000009060000C3
:100170000B0600000D0600000F0600000000000046
:100180001106000013060000150600001706000007
:100190000000000019060000000000001B0600001F
:1001A0001D0600001F0600002106000023060000B7
:1001B000FFFFFFFFFFFFFFFFFFFFFFFFFFFFFFFF4F
:1001C000FFFFFFFFFFFFFFFFFFFFFFFFFFFFFFFF3F
:1001D000FFFFFFFFFFFFFFFFFFFFFFFFFFFFFFFF2F
:1001E000FFFFFFFFFFFFFFFFFFFFFFFFFFFFFFFF1F
:10040000FFFFFFFFFFFFFFFFFFFFFFFFFEFFFFFFFD
:100410003449072291438D46334934480A1A06D09D
:100420000722914381F30988022282F3148830481D
:100430003049314A00F043F830483149314A00F040
:100440003EF831483149324A00F039F831483249F2
:10045000324A00F034F832483249334A00F02FF87B
:1004600032483349334A00F02AF833483349344A92
:1004700000F025F833483449002200F02BF83348C7
:100480003349002200F026F832483349091A082976
:1004900003DB00220260043001601F481F498842CC
:1004A00005D00268043003B4904703BCF7E700208E
:1004B0008646EC4600200021284A9047FEE7884205
:1004C00007D0521A05D0037801300B700131013A80
:1004D000F9D17047884202D002700130FAE77047C4
:1004E0001F4870478CAEFF1F8CAEFF1F8CAEFF1FE6
:1004F000686100000000FF1F2400FF1F3806000095
:1005000038060000385A0000686100000000FF1F34
:100510000000FF1F385A0000385A0000385A000007
:10052000385A0000385A0000385A0000385A000083
:10053000385A0000676100008C6100008CAEFF1F1C
:100540008CAEFF1F2400FF1F6A50FF1F8CAEFF1FE1
:100550008CAEFF1F6C50FF1F6C60FF1F7906000000
:10056000FFFFFFFFFEE7FEE7FEE7FEE7FEE7FEE731
:10057000FEE7FEE7FEE7FEE7FEE7FEE7FEE7FEE753
:10058000FEE7FEE7FEE7FEE7FEE7FEE7FEE7FEE743
:10059000FEE7FEE7FEE7FEE7FEE7FEE7FEE7FEE733
:1005A000FEE7FEE7FEE7FEE7FEE7FEE7FEE7FEE723
:1005B000FEE7FEE7FEE7FEE7FEE7FEE7FEE7FEE713
:1005C000FEE7FEE7FEE7FEE7FEE7FEE7FEE7FEE703
:1005D000FEE7FEE7FEE7FEE7FEE7FEE7FEE7FEE7F3
:1005E000FEE7FEE7FEE7FEE7FEE7FEE7FEE7FEE7E3
:1005F000FEE7FEE7FEE7FEE7FEE7FEE7FEE7FEE7D3
:10060000FEE7FEE7FEE7FEE7FEE7FEE7FEE7FEE7C2
:10061000FEE7FEE7FEE7FEE7FEE7FEE7FEE7FEE7B2
:10062000FEE7FEE7DFF808D0024A9047FFF7F0BE8A
:08063000F8FF0020AD560000A8
:10063800BFF34F8F044A054BD16801F4E0610B43C7
:10064800D360BFF34F8FFEE700ED00E00400FA052A
:10065800064B01881A88914205D1C088DB88C31AE5
:100668005842584170470020704700BF2400FF1FC0
:10067800F8B5294B294E5B78284D13F0040F04BFB9
:1006880002233370337803F0FF042BB1012C0CD113
:1006980004F0A6FF00241BE000F0FEFB10B100F000
:1006A80002FC15E005F000F8FCE704F099FF04F0FF
:1006B800FDFF05F041F8412805D105F03DF8B0F5FA
:1006C800804FFAD103E000232B706B703DE10124C9
:1006D80004F00BFD002383F3138840F2F32000F0AD
:1006E80085FA0120142100F0B3FA012000F0A2FAE3
:1006F8000B4B00221A805A8044F26002DA804FF4D1
:1007080080729A8074B904F0E1FD04F035FE002887
:1007180040F0258130702CE100F00740F8FF002000
:100728002400FF1F944D954C00F086F94FF000739C
:100738006B606B6943F000736B616B6943F08073A6
:100748006B61A36E23F4E063A366A36E43F4807326
:10075800A366E36E23F4E063E366E36E43F4807319
:10076800E366636E23F4E0636366636E43F4807349
:100778006366236E23F4E0632366236E43F4807379
:10078800236604F0FBFE7E487E49436923F040035C
:1007980043614FF0080E7C4BC1F808E0DA6822F498
:1007A800E062DA60DA6842F48072DA604A6942EA42
:1007B8000E024A612022AA60626922F4E062626144
:1007C800626942F4807262616A6942F020026A6179
:1007D8004FF4802282606D4A976C27F4E067976433
:1007E800976C47F480779764476947F48027476197
:1007F8004FF08057AF60276F27F4E0672767276FB0
:1008080047F4807727676F6947F080576F611F69E2
:1008180047F003071F611F6927F4E0671F611F691D
:1008280047F480771F619F6847F003079F609F68C0
:1008380027F4E0679F609F6847F480779F601F6890
:1008480047F003071F601F6827F4E0671F601F68F1
:1008580047F480771F604E4FD7F848C04CF0030C20
:10086800C7F848C0D7F848C02CF4E06CC7F848C0AF
:10087800D7F848C04CF4807CC7F848C0976927F47B
:10088800E0679761976947F480779761D76927F49C
:10089800E067D761D76947F48077D761D76947F0B0
:1008A8000307D76140228260C5F808E0E26822F4B5
:1008B800E062E260E26842F48072E2606A6942EAF9
:1008C8000E026A61DA6B22F4E062DA63DA6B42F4F0
:1008D8008072DA634FF400528A604A6942F4005227
:1008E8004A615A6B22F4E0625A635A6B42F480728E
:1008F8005A634FF480428A604A6942F480424A61EE
:100908009A6B22F4E0629A639A6B42F480729A635B
:1009180002224A605A6822F4E0625A605A6842F435
:1009280080725A604B6943F002034B6103F01EFA70
:1009380003F02EFA03F060FA012808D002284FF0DD
:10094800010405D0002333707470FFF771FE002492
:1009580004F0AAFE002CEBD0D5E604F0A5FE04F0C6
:10096800C7FC04F003FD0128F7D0002302283370E8
:1009780000D001237370E8E700F10F4000D0044075
:1009880040F00F40C0F00F4000C0044000A00440F9
:1009980000B0044008465918B1F5801F08B509D8B9
:1009A80000F14040114600F5E0001A4604F0F6FB5D
:1009B800012008BD002008BD07B501230DF107027D
:1009C800FFF7E8FF08B19DF8070003B05DF804FBE6
:1009D80008465918B1F5801F07D800F14040114664
:1009E80000F5E0001A4604F089BB0020704707B5FF
:1009F80002AB03F8012D1A460123FFF7E9FF03B004
:100A08005DF804FB704770477047704770470000F7
:100A180008B500F031F8012000F020F8054B20223D
:100A28005A604FF000729A604FF080729A6001200D
:100A380008BD00BF00F10F40074B00221A6041F2C9
:100A4800040103F56833585840F4A020585041F287
:100A580048015A50704700BF00D00040054B93F83A
:100A6800002110B142F0400201E002F0BF0283F819
:100A7800002170470020074008B500F077FA044AC3
:100A880041F23403D15841F48021D15008BD00BF50
:100A9800007004400D4A41F234034FF40070D158FD
:100AA80041F48021D1500A49C1F888000949002041
:100AB80081F88C0081F8080181F80C010877D15879
:100AC80021F48021D15000F063BA00BF00700440C7
:100AD80000E100E0002007407047000001F50061D8
:100AE80038B520F4FF6421F4FF6524F0070425F0ED
:100AF8000705AC421CD2104B0922DA71C4F3074235
:100B08009A71C4F307225A7100221A71012383F3E0
:100B18001388094B30221A7004F082FF002383F3F4
:100B28001388054B1B78802B04D104F50064E0E79B
:100B3800012038BD002038BD00000240294B2DE9B6
:100B4800F743884620F003070621D97196084546E1
:100B58003C46002E3FD0234B2348C4F307429A71EA
:100B6800C4F307225A71C7EB0809E2B21A71FF21D0
:100B7800042204F017FF59F804301B4819BA02ABD5
:100B8800042E94BFF2B2042243F8041DC2F10401FA
:100B9800084403EB810104F0E1FE124B19F804202C
:100BA8001A726A785A72AA789A72EA78DA72012303
:100BB80083F313880B4B30221A7004F031FF0023A3
:100BC80083F31388074B1B78802B05F1040504D1A8
:100BD8000434013EBDE7012000E0002003B0BDE879
:100BE800F08300BF000002400B0002400E4A41F2B1
:100BF8003003D15841F08071D1500C4B00221A605B
:100C0800DA645A600A4AB2FBF0F0092298601A6066
:100C1800A3F5DC23DA6C22F4E062DA64DA6C42F4DD
:100C28004072DA64704700BF0070044000800B40D7
:100C380000366E01C30003F1804303F538232822F0
:100C4800DA60024A52F820201A6170473000FF1F0C
:100C5800074B9A6810B551436424064AB1FBF4F176
:100C680042F82010013003EBC003996010BD00BFAB
:100C780000800B403000FF1F18B1013820F00F0032
:100C8800103070470A4B0B49186000220023C1E955
:100C98000023094A094800231360094A1360094BD5
:100CA8004FF0FF321A60FF21082204F07BBE00BF1C
:100CB8009004FF1FA004FF1F8404FF1F8804FF1F68
:100CC8009804FF1F9404FF1F2DE9F041684ED6F8E1
:100CD800008090B005460C46B8F1000F40F0C08087
:100CE800402900F3C1800846FFF7C6FFA042074627
:100CF80000F3BA8029465F4D2246684604F02EFE6E
:100D08005D4C28683A462044694604F027FE2B6863
:100D18001F44012F2F6040F2A580238840F20A412A
:100D2800DA1C8A4200F2A0809742C0F09B804246BB
:100D3800414690B2984205D2A01801328078014409
:100D4800C9B2F6E7E21892788A4240F08D804A4AA2
:100D58009278032A00F28880DFE802F002061A5A25
:100D6800022B40F081806FE00D2B7DD14348FFF7C7
:100D78006FFC002878D0424B1B6823B94FF4004021
:100D88004049FFF7ABFE404B4FF400421A605BE06E
:100D9800B4F8078008F10702934265D13A4F364B01
:100DA800D7F800C0D3F803309C455DD13749D1E965
:100DB800002300268E46B1B2414507D2A11901365B
:100DC800487A0021121843EB0103F4E7BCF5004F01
:100DD800CEE9002309D12E492E48082204F0BEFD91
:100DE8002B48FF21082204F0DDFD254B1B682BB1A1
:100DF800B4F807203B6813443B6025E0D4F80300AF
:100E08002349B4F80720FFF799FE0028F0D12BE01A
:100E1800092B29D11D49D4F80320D4F80730D1E98A
:100E28000001994208BF90421ED1154B1B6813B1AF
:100E38000123336014E04FF4004016490822FFF7FD
:100E48007DFE0028F4D10FE02E6821880A48033E71
:100E5800761A03312144324604F080FD2E6001E009
:100E6800022002E0012000E0002010B0BDE8F0817F
:100E78008404FF1F9804FF1F3800FF1F3B00FF1F5B
:100E88009004FF1FFFFF07009404FF1FA004FF1F2B
:100E98004100FF1F8804FF1F4FF4004358680130CA
:100EA80018BF0120704748F204024FF40043D3F8FA
:100EB80000D01568A84770471FB54FF0180C0120DF
:100EC80002238DE80810254902900022034600F00D
:100ED80071F8234B2349244828229A720822DA728F
:100EE80041F2440288501A7A42F080021A721A7A41
:100EF8001106FCD41A4B90221A70194B9A7902F0F9
:100F08000C02082AF9D100225A719A799206FCD467
:100F1800134B14221A70124B9A7912F0100F1946BB
:100F2800F9D08A790E4B12F00C0FFAD141F2440233
:100F38000C494FF471008850DA7842F08002DA7078
:100F4800DA7842F02002DA70054BDB7803F06003B0
:100F5800202BF9D105B05DF804FB00BF00093D0066
:100F68000040064000700440000022221FB5022005
:100F780018238DE809000022012002920349034644
:100F880000F018F805B05DF804FB00BF00093D004B
:100F980000F000B8064B00225A7119468A79044BB2
:100FA8009206FBD41A7902F0BF021A71704700BF8B
:100FB80000400640F0B59DF81C709DF914606FB1B3
:100FC800904CA57915F00C0F40F00581A579ED0638
:100FD80040F10181A479A40600F1FD808A4CA14268
:100FE80000F3FB803BB1A1F57414884DA4F510649F
:100FF800AC4200F2F480751EEDB2182D00F2F180BB
:101008009DF91840183CE4B21F2C00F2EC8091FBCB
:10101800F6F6A6F5F416DFF80CC2A6F59066664556
:1010280000F2E38070B17748467806F0C30646F0D0
:101038001006003246EA8306F6B218BF012246EAD5
:10104800C2024270002F00F09A80714A91420EDD70
:10105800704A91420DDD704A91420CDD6F4A91420F
:101068000BDD6F4A9142CCBF0522042206E0002224
:1010780004E0012202E0022200E003226148D200DB
:1010880042F08002067802706BB142F210735D4A3A
:101098009079870703D4013B9BB2002BF7D1937952
:1010A8009E0740F1A4804FF4FA63564A9079C0062F
:1010B80003D5013B9BB2002BF7D19379DB0600F1F6
:1010C80098804FF4FA634F4A9079C0F38100022860
:1010D80003D0013B9BB2002BF5D19279494BC2F367
:1010E8008102022A40F087805A7942F020025A7120
:1010F8001A7902F0E00215431D715A7902F0E002F4
:1011080042F0400214435C714FF4FA633D4A90790F
:10111800870603D4013B9BB2002BF7D193799E0637
:101128006BD54FF4FA63374A9079450603D4013BEF
:101138009BB2002BF7D19279324B540601D444204C
:10114800F0BD1C795A79187804F01F0402F01F02C8
:1011580000F03F001870013410324FF4FA63294848
:101168008579C5F38105032D03D0013B9BB2002B84
:10117800F5D18379C3F38103032B40D124E0214BBC
:101188001A7902F0E00215431D715A7902F0E00263
:1011980014435C711A7942F040021A714FF4FA63F1
:1011A800184A9079400603D4013B9BB2002BF7D133
:1011B8009279144B5206C2D51C795A7904F01F044F
:1011C80002F01F020134103291FBF4F05043022365
:1011D80090FBF3F0F0BD0120F0BD2120F0BD2220EE
:1011E800F0BD4120F0BD4220F0BD4320F0BD2320DA
:1011F800F0BD1120F0BD1A20F0BD1620F0BD1B2057
:10120800F0BD00BF0040064000879303003FAB01DC
:10121800D0121300A0252600404B4C008096980061
:10122800002D310180841E000423037000234360D5
:10123800184670470378042B04D142680A43426079
:1012480018467047052070470378042B05D142687B
:1012580022EA010242601846704705207047037869
:10126800042B05D1436819420CBF032002207047A4
:101278000520704708B5FFF7C7FBBDE8084000F038
:101288000FBE13B5002340080193441C019BA342E1
:1012980009D24FF4C87004F097FAFFF7B5FB019B29
:1012A80001330193F2E702B010BD0020704700003F
:1012B80030B58FB00EA9002541F8385D694604465F
:1012C80000F00FFB009B1BB962B66FF0030049E00A
:1012D8001A7F042A0DD0062A33D0022A41D101A848
:1012E8002149224601F018FC009B9B6802931F23AA
:1012F80020E09B689A7AD97A120442EA0162197A44
:101308005B7A0A4352EA03231BD01849224601A8F4
:1013180001F002FC009B9A68127B22F07F0202F027
:10132800FF0122B1E9B15A6903929B6912E05A6937
:1013380002929B692069216A049301AA02F056F877
:1013480010E001A80A49224601F0E6FB009BDB6891
:1013580003930D232069E169059301AA02F022F89D
:1013680000E028460FB030BDA5170000D9130000D3
:10137800BD15000073B502A9002341F8043D0446D9
:1013880000F0AFFA019BEBB19B68E26993F90C306E
:10139800256AA0680D49002BB8BF15462246ACBF88
:1013A8000026802601F028FD08B107280CD1019BF2
:1013B8000E221A776A7FA06802213243002301F0C7
:1013C8002AFD01E06FF0030002B070BDF5160000C1
:1013D8002DE9F341984600231746089D01930C46D2
:1013E80021B1084601A900F07CFA2646019C002C90
:1013F8003AD0C4F81E8025B1072D02D0972D0BD105
:10140800E7B106232377002384F822303046FFF71C
:101418004FFF054640B311E0862D0FD194F82220E6
:10142800062312B9012284F82220237763773046F5
:10143800FFF7A0FF10B1072818BF0125A5F1850304
:10144800012B11D9072D0FD0019A012313771469A5
:10145800D2F81E306FF007003146A047304600F042
:101468002AFA3046FFF724FF02B0BDE8F0810000F9
:10147800F8B50C68194A0D462146074601F046F9A9
:10148800064650BB72B66860284601F083F968606A
:10149800D0B131463246384601F00EF90221A0613A
:1014A8003246384601F008F90221E0610122384647
:1014B80001F002F9A369206233B1E36923B118B1DD
:1014C800204600F0DAF907E020460021042204F063
:1014D80069FA00232B606B6062B6F8BDA804FF1F91
:1014E8002DE9F04105460F468C6872B601F052F9B5
:1014F80040B32E68B06801F065F8054608B10728C2
:1015080024D14323E3704223A370532363705523EC
:10151800237030463946D6F8348000F0B3F90028F5
:1015280012DB02233B77030EE371030CA371030A5A
:1015380063712071B8F1000F08D13046FFF7B8FE8B
:10154800054603E0CA2501E06FF0010562B62846AA
:10155800BDE8F08130B587B006A9002441F80C4DEC
:10156800054600F0BEF9039BEBB121228DF810204F
:10157800FF228DF81120EA688DF813408DF812408B
:1015880092788DF814200D221A77A868009504A97E
:101598002246074B8DF815408DF817408DF81640F8
:1015A80001F05DFD01E06FF0030007B030BD00BF42
:1015B800F51600002DE9F04F87B01F460023109C58
:1015C80005930E4619B1084605A900F08AF9059A4F
:1015D800002A00F08580002C5FD1D2F80880D568F9
:1015E80098F80790CDF8009098F80690CDF80490F8
:1015F8000D2F98F8059098F80480CDF80890CDF84C
:101608000C80E87995F806C06B79297995F803A0DC
:1016180095F802B095F8018095F800901FD14FEA2F
:101628000B4B4BEA0A6B4BEA090B2F4F4BEA082886
:10163800B84514D14FEA0C4C4CEA0060014341EA2A
:1016480003230199DDF800900F04039947EA09671D
:10165800DDF808900F4347EA0927BB4212D092F8F9
:10166800223001246BBB062382F82240137753777C
:101678003046FFF76FFF044690B3852830D007281F
:101688001FD12DE02B7B23B1012B29D109231377FF
:1016980000E0147782F8224013E0862C4FF0010313
:1016A8000BD192F8221051B982F822300623137711
:1016B80053773046FFF75EFE12E0137701E01377A9
:1016C8001C46059A2046D2F81E3015693146A847AF
:1016D800304600F0F0F8736B13B13046FFF7E8FDC1
:1016E80007B0BDE8F08F00BF5553425373B50023D0
:1016F800069D01930E4621B1084601A900F0F1F8B4
:101708003446019A002A44D00DB1072D31D1137FF8
:101718000A3B042B29D8DFE803F014252803250009
:10172800A0681D49E569224601F066FB034680BBB7
:101738006A7FA06842F08002022101F06CFB0A2255
:101748000DE0A0681449256A224601F055FB0346BE
:10175800F8B96A7FA068022101F05DFB0B22019BAA
:101768001A7716E0537F137710E02046FFF7F2FE52
:101778000FE0862D0DD10123137728461669D2F87C
:101788001E302146B047204600F095F82046FFF766
:101798008FFD02B070BD00BFF5160000F7B51F46FB
:1017A8000023089C01930E4621B1084601A900F0C8
:1017B80098F83546019A7AB30CB1072C18D11F2F27
:1017C8000CD092F82230BBB9012382F822300223D0
:1017D800137753772846FFF7BDFE07E004231377F6
:1017E800002382F822302846FFF762FD044698B1AC
:1017F800852C11D0072C0FD0019A01231377146977
:10180800D2F81E306FF006002946A047284600F09F
:1018180052F82846FFF74CFD03B0F0BD7FB50446EB
:101828000E46154672B600F0B5FF10B32468A068DE
:1018380000F0C8FEF0B9A1238DF80830FE238DF81A
:101848000B008DF80A008DF80930E3689B788DF855
:101858000C3001238DF80D008DF80F008DF80E3037
:10186800A368009002A9184632462B4601F0F7FB00
:1018780000E0CA2062B604B070BD243000211822EE
:1018880004F090B810B5034672B6426B032A0ED81E
:1018980090F8390003EB8004032861621ABF411CE9
:1018A800C9B20021013283F839105A6301E04FF0C0
:1018B800FF3062B610BD10B572B6426B7AB190F8BF
:1018C8003830032B00EB83044FF000011ABF0133BB
:1018D800DBB20B46013A616280F83830426362B687
:1018E80010BD72B6436B23B190F8383000EB83001B
:1018F800436A0B6062B67047F0B504468068059E7F
:1019080002741A0E42741A0C827403751A0A330E82
:101918004375330C8375330AC2740676C173C37575
:10192800089DA3689DF818702A0EDA72A3682A0C1D
:101938009A72A3682A0A5A72A3681D72A3681F7351
:10194800A36861685A7B01F00F0122F00F020A4375
:101958005A73A3689A7B22F00F0242F00C029A7322
:10196800079B63612146A5612068BDE8F040FFF749
:10197800B7BD0000044B0020FF2283F8840083F8E1
:10198800940083F8802070470020074000207047AB
:10199800034B93F8A40093F8A03043EA0020704763
:1019A800002007404A7F0C4830B503469400234482
:1019B800CC7F032C03D8DFE804F0040D0D09902038
:1019C80030BD10F8224044F00C0400E0082400F870
:1019D80022404B63002030BDC02007401FB50223C2
:1019E80001A88DF804300291039200F09FFC0020BA
:1019F80005B05DF804FB1FB5032301A88DF804307A
:101A08000291039200F092FC002005B05DF804FBFF
:101A18001FB5012301A88DF804300291039200F04C
:101A280085FC05B05DF804FB1FB501A800F0BAFC01
:101A38000028FAD0002005B05DF804FB2DE9F04F2E
:101A4800144685B01E46AF4BBDF83870002281465B
:101A58001A6094F8200022899A46974228BF1746B0
:101A6800227F10B902F07F0201E042F08002A64B0B
:101A780083F89820E27F012A04D0012914BF4D225F
:101A8800CD2203E0012914BF4C22CC2283F8C020C8
:101A9800E37F012B03D0032B01D0E56800E000258C
:101AA800C7EBC703062293FBF2F2C7F309075B00F3
:101AB800653265333F04D2B2DBB247F08000019251
:101AC800029303904FF032088F4B93F894309906A5
:101AD80040F18D800120FFF7D4FB8C481F210022A4
:101AE8000123FFF7BCFB022840F08180B8F1010810
:101AF800EAD1DFF82CB2854843689A0774D4226B80
:101B0800002A6BD05B0769D50421FFF79DFB7E4A4D
:101B1800236B92F888101B6811F08D0F04D092F88F
:101B280088C0CCF1000B1EE1C3F383020F2A55D8FD
:101B3800DFE802F020543F08545454545454180811
:101B480054541149327802F07F02702A31D1704A18
:101B5800012111702DE06F4BDFF8C8B101221A7016
:101B680000253BE0C5B3E0686423401B5843FFF7FA
:101B780088FB31E0E27F012A1BD04FF4FA786348F2
:101B88001F2100220A23FFF76AFB0328B3D1012093
:101B9800FFF777FBB8F10108F1D1CAF80040002D32
:101BA80000F0DE80E0680A23401B5843FFF769FB1A
:101BB800D6E0C3F3094B94F82C3083F0010384F882
:101BC8002C3000250AE0E068DFF85CB10A23401BEE
:101BD8005843FFF756FB01E06FF0FF0B6B1E002D1B
:101BE80000F0C1801D466DE7DFF834B1BBE094F822
:101BF8002020454B1AB9019983F8AC1002E0029AEB
:101C080083F8AC2093F880203F4942F0040283F81F
:101C18008020B9F1010F4FF0FF0283F8882043D0EC
:101C280026D3B9F1020F40F081803B4B23F4FF73B8
:101C380023F0010343F01002384B587800F00100FC
:101C480042EAC00020634660587800F0010042EA8A
:101C5800C00294F82C0000F0010047EA801040F020
:101C680080001060627F02F00F0242F0100242E032
:101C7800294B23F4FF7323F0010343F01002274B91
:101C8800587800F0010042EAC000206346605878A6
:101C980000F0010042EAC00203981060627F02F07F
:101CA8000F0242F0D00226E01C4B1B4A187822F49F
:101CB800FF7222F0010200F0010042EAC000206336
:101CC8004660187800F0010042EAC00294F82C003F
:101CD80000F0010047EA801040F080001060627F49
:101CE80002F00F0242F0900281F8A8201A7882F0E0
:101CF80001021A701CE081F8A8205A7882F00102CB
:101D08005A7015E0F004FF1F00200740E404FF1F8D
:101D1800F404FF1FB008FF1F0006FF1FC404FF1FC5
:101D280000F8FFFF00FCFFFF00FEFFFF0023236316
:101D38004FF47A780E481F2100226423FFF78FFAA8
:101D480003280AD10120FFF79CFAB8F10108F1D164
:101D5800CAF800406FF00F0BCDE64FF0000BCAE653
:101D68006FF00F0B3AE7584605B0BDE8F08F00BF9B
:101D7800E404FF1F13F5806F73B5154619D013F5EA
:101D8800807F03D0002B21DA972413E09724C67FA5
:101D98003EB991F830304BB1CB684A6881F8306071
:101DA8000AE0837F13B1CB684A6805E00B698A684B
:101DB80002E0862400231A460026CE630E604E6990
:101DC8004EB1009489695B1BB04704E0002A14BF38
:101DD80097240024DBE702B070BD0000CB7F032B03
:101DE8000CD1074B03F1A00053F8082C8A4204BF1A
:101DF800002203F80C2C10338342F5D100207047E1
:101E08001008FF1F70B50A20032100F07DFA05466F
:101E1800C0BB1E4C1E48FFF707FA4026FF2384F874
:101E2800803084F8006194F800311A4803F07F0389
:101E380084F8003194F8943043F0020384F8943025
:101E48002022294603F0AEFD134BC3F3072284F882
:101E58009C20C3F307421B0E84F8B02084F8B430EA
:101E6800012384F8AC30082384F894300B4B84F8B1
:101E7800846003F1A002002103F80C1C1033934284
:101E8800F9D100E08D25284670BD00BF002007402D
:101E9800E404FF1FC404FF1F0006FF1F1008FF1FF4
:101EA8002DE9F74FA54D2B68DB69002B00F05E810B
:101EB800A34EDFF8A89200223270A9F1A00313F80C
:101EC8000C0CA3F110011033002808BF11464B4534
:101ED80001D00A46F3E79B4C81B19B4B8A6818688E
:101EE800904202D100221A6008E00C229448043182
:101EF80003F034FD23685A1E2260BBB90A2323600D
:101F08008F4C204600F04EFA80B96368DB7F032BC4
:101F18000CD18E4810F80C3C2BB989490C220C388E
:101F280003F01CFD02E010304845F3D196F800801C
:101F3800834FB8F1000F00F01981B8F1020F844CFB
:101F480000F0B080B8F1030F00F08180B8F1010F04
:101F580040F0D2802A68BB68DFF8FCA10821009114
:101F6800516B7A6831330020FFF768FDBB68196947
:101F780051B3784A9B681360CAF800109046DAF8A3
:101F88000030754F73B12A68DFF8C8B19BB200936F
:101F9800516BD8F8003072680120FFF74FFD002818
:101FA800206008DA72682968012382F82C3000233F
:101FB8000093022036E0DBF800300344CBF8003011
:101FC8003B68181A3860DAE7D3F80CB0BBF1000F99
:101FD8002DD0604A5B681360CAF800B0904607E0ED
:101FE800DBF800300344CBF800303B68181A38603F
:101FF800DAF80030584F73B12A68DFF858B19BB24D
:102008000093516BD8F8003072680220FFF716FD74
:1020180000282060E4DA726829680120002382F829
:102028002C000093496BFFF709FD206064E0434BE7
:102038007A681B6882F82C80CDF800B0596B40464E
:102048005B46FFF7FBFCCAF800B0206054E0BA68B2
:10205800404F93683B60404B12691A6098462B6862
:10206800B8F800200092596B72683B68DFF8E4B05A
:10207800DFF8E4A00120FFF7E1FC002820603BDB4B
:10208800DBF800300344CBF80030DAF800301B1AD4
:10209800CAF80030002B2ED0294A52681289904283
:1020A800DDDA28E0BA682B4F53683B602A4BD268C8
:1020B8001A6098462B68B8F800200092596B72682D
:1020C8003B68DFF890B0DFF890A00220FFF7B6FC7D
:1020D8000028206010DBDBF800300344CBF8003028
:1020E800DAF800301B1ACAF8003023B1144A5268D3
:1020F80012899042DEDA23607068114FC37F032B88
:102108002ED1236813F5807F30D0134AB96812683E
:10211800FFF730FE7968B8680C4B53F8082C8A42F0
:10212800A3F1100406D153F8042C824202D10023F3
:1021380023711BE010334B45EFD117E0C009FF1F97
:10214800A008FF1F1800FF1FF004FF1F1008FF1F43
:10215800AC08FF1FEC04FF1FB408FF1FB008FF1FE7
:10216800434BB9681A682368FFF704FE414E736849
:10217800DC067AD0D8073FD53F4C002384F8983046
:102188006420FFF77EF894F894302A685BB2DB434A
:10219800DB0F53632BB994F8983003F07F0384F86E
:1021A8009830FF23092784F8803084F8847094F8E5
:1021B800943043F0100384F894301E20FFF761F840
:1021C80094F8943003F0EF0384F8943094F8943042
:1021D80043F0010384F894306420FFF752F884F840
:1021E80084702868002290F83410134600F018FD17
:1021F80020480121FFF728F8736899071CD51E4B62
:1022080093F8802042F0400283F8802093F88020E1
:10221800520609D5002283F8982093F8C02042F08E
:10222800800283F8C02003E012481021FFF702F86B
:1022380010480621FFF708F87368DB0615D500215A
:1022480028680A4600F06AFD0B4B0A48082283F802
:102258009420FF2283F880201021402283F88420D4
:1022680003B0BDE8F04FFEF7EFBF03B0BDE8F08F55
:10227800B408FF1FE404FF1F00200740684620F051
:1022880007018D4619B5134B93F8802093F88440C5
:1022980014401AD0610683F8804009D593F8842049
:1022A8000D4802F0BF0283F884200121FEF7C2FF27
:1022B800220703D508480421FEF7BCFFE307E2D54F
:1022C80002210548FEF7B6FFDDE7BDE8194085465F
:1022D800704700BF00200740E404FF1F10B5044604
:1022E80003F0AEFA024B1A6822441A6010BD00BF10
:1022F800B808FF1F08B503F0E5FA024B00221A6080
:1023080008BD00BFB808FF1F10B5064B0022022405
:102318001A6018615A609C60D9605A61024B104675
:102328001A6010BDAC04FF1FBC08FF1F1A4A70B525
:102338000646906801282DD0184BD56819680131D8
:102348000A2908BF002119601B681549142404FBD9
:1023580003130021A94205D056F8214043F8214033
:102368000131F7E700210228D96002D11961136011
:1023780002E051681961CB605169536001315161C4
:102388001269054B91424FF0000002D101229A6078
:1023980070BD986070BD00BFAC04FF1FBC08FF1F74
:1023A800C008FF1F134A70B50646906802281FD060
:1023B8001468D5680023AB4205D054F8231046F8BA
:1023C80023100133F7E750690A4901284FF0000349
:1023D80002D10B604B6002E0E4680C6023610138B5
:1023E800044B506110B902229A6070BD00209860B9
:1023F80070BD00BFAC04FF1F38B5B1F92230182BEF
:102408000C4617DC72B600F0A4FE08B162B638BDFF
:10241800A06A38B920460021382203F0C3FA62B610
:10242800002038BD056CFFF765FFA36A9D42F1D017
:102438002846F7E78F2038BD037973B9837963B9E4
:10244800437953B9037843B9437833B9837823B9C7
:10245800C078003018BF0120704701207047000085
:102468002DE9F0470646884672B6436893F80F9000
:10247800997B1D7B03F10C0241EA0929914415441B
:1024880000206B78042B40F08780B3680BB90020DC
:1024980082E01C6B002CFAD00C344FF0000AA4F137
:1024A8000C073846FFF7C8FF012869D114F80C3C1F
:1024B80014F80B2C14F8091C43EA022214F80A3CFD
:1024C80043EA012353EA02010FD096F835C096F883
:1024D80034E096F8370096F836104EEA0C2E72451E
:1024E80003D141EA0022934261D014F8083CFF2B43
:1024F80003D096F830209A4222D17968326B21F0C5
:102508007F4122F07F4221F0FF0122F0FF02914239
:102518004DD014F8072C96F83100904203D114F8E6
:10252800060CFF2843D0FF2A05D114F8060C96F8AC
:10253800322090423BD0224A914238D0FF2B02D021
:102548006A799A421AD114F8073CAA799A4206D1B4
:1025580014F8062CE979914229D0FF2A27D0FF2BBD
:1025680004D114F8062CEB799A4220D07B68144ADF
:1025780023F07F4323F0FF03934218D00C348EE7F7
:10258800BAF1000F07D1BB68002B80D0304629462E
:10259800424698477BE701202B781D442B7813B9D6
:1025A80062B6BDE8F0874D45FFF46BAFF8E754F825
:1025B800043C30462946424698474FF0010ADDE779
:1025C80000FFFF008368DB69834204D00BB11B68FE
:1025D800FAE7C020704700207047F0B58669069D6D
:1025E8009DF814700024052E2C6063D9012A01D1AE
:1025F8002C305AE04068022A00F10C0055D0C67809
:10260800847844EA0624D61E0444052E3AD8DFE826
:1026180006F04F031434343402799A4248D30278CE
:102628001044A04244D24278042AF8D182789A42CF
:10263800F5D1C278BA42F2D137E0002938D04A78C9
:10264800042A35D10A78092A32D1002B30D00A79E8
:102658009A422DD3084602781044A04228D24278E4
:10266800042A25D0052A04BF03F1FF33DBB2002B6F
:10267800F1D11AE04378934217D003781844A04266
:10268800F8D315E0002918BF084688B10678304409
:10269800A0420DD24678042E00D149B99642F5D110
:1026A8005E1EF6B20BB13346F0E728600020F0BD9D
:1026B800C820F0BDC120F0BDF8B50768044638460B
:1026C8000D461646FFF77EFFF0B915B1032D1CD84D
:1026D80001E0F869F8BD012E17D863685A78042A12
:1026E80013D11A78092A10D11A790346D9B291421E
:1026F8000AD204EB83018868C17FA94202D1817F95
:10270800B14202D00133F1E70020F8BDF8B5054623
:102718000C46164672B607683846FFF753FF08B1ED
:1027280062B6F8BD6B685A78042A04D11B78092B65
:1027380001D17B6813B962B6CA20F8BD5A68052A68
:1027480003D103F10C02944201D01B68F2E716B9D9
:1027580062B6CC20F8BD9A682046002103F022F921
:10276800324613680BB11A46FBE7146084E8480048
:102778002B68A360064A6B68E360BB682361136833
:102788000133FDD01360636162B60020F8BD00BF5D
:10279800BC09FF1F90E80600034648691AB1131ADE
:1027A8005842584170475860704772B600B111B925
:1027B80062B6C4207047016362B600207047F8B55E
:1027C800002205460E462B7D934258D905EB820719
:1027D800FB6C002B50D0B1789B7899424CD16B6838
:1027E8001C46F4B16168032919D121698E4216D1BA
:1027F8009C4202D123686B6006E01A68A24201D0AD
:102808001346FAE722681A6004F10C0000F074FA23
:102818002046FFF76FFD0023FB642A7D01E0246852
:10282800DFE7686803463BB35968052922D19969EF
:102838008E421FD1002283421A6202D11A686A604E
:1028480006E002689A4201D01046FAE71A68026068
:102858001A69116803F10C00814204D011688142A1
:1028680001D00A46FAE7D96811601846FFF742FD19
:102878002A7D01E01B68D6E70132D2B2A3E7F8BD92
:102888002DE9F04F044693B00D46164672B6FFF791
:1028980099FE8146002840F03181A3681B6B0293A2
:1028A8006B78042B02D04FF0CA0927E12B78092B4B
:1028B800F9D120462946FFF782FF227D5FFA89F386
:1028C8009342F0D2CA4609F1010904EB89039B6CD3
:1028D800002BF3D1D4F80480B8F1000FE3D0D8F876
:1028E80000300BB19846FAE729790531890020466E
:1028F800032206AB00F065F90146002840F001818B
:10290800EA78009205AA0192AB7820460422FFF7E4
:1029180064FE8146002840F0F180069F4FF0010BCD
:102928002B795B456BD30023009308AB01932046BA
:10293800294605225B46FFF750FE00284DD1089B2B
:1029480009949A790A9259791A790E9042EA0122E1
:10295800C2F30A02ADF82C200F220C92E27B0D90F4
:102968000F908DF840209A7802F00F028DF84120E0
:102978009A78D243C2F3C0128DF84220DA7802F076
:102988000302022A04D0032A02D0012A18BF002217
:102998008DF84320227B8DF8442001228DF84520B4
:1029A8009DF8432002F0FD02012A11D15B791B0238
:1029B80003F4C053B3F5006F05D0B3F5805F07D1BA
:1029C80002238DF845309DF8453001338DF84530A8
:1029D800A06809A907AA00F04EFC814630B100237F
:1029E800C8F800300698FFF785FC87E00BF1010C6A
:1029F80007EB8C02079BD3605FFA8CFB90E704EB34
:102A08008A03FC603D610298DD64FFF715FD68B933
:102A18000823A3612046E978AA7800F00AFB072872
:102A28004FF0000362D0A36162B670E0002E6BD055
:102A38003A69384B53F80C1CA3F10C08002958D0FC
:102A480013F803CC92F805A013F8020C917992F8C8
:102A5800079013F806BCCDF808B001400CEA0A0A42
:102A680041EA0A2A13F8011C13F805BCCDF80CB08A
:102A780001EA090959EA0A2913F804BC0FD0DDF85C
:102A880008A00AEA0C0CDDF80CA00AEA000040EAEB
:102A98000C200BEA010B4BEA0021894501D00C33CD
:102AA800C8E7B8F1000F24D0B8F804A072B62046E1
:102AB800FFF788FD814660B920465146052209ABDB
:102AC80000F07FF8814608B1002301E0099B0C3330
:102AD800336062B6B9F1000F0DD1D8F8003007F1B4
:102AE8000C003146984773681BB191E762B61846E7
:102AF8000DE04FF0C30900233360736062B64846A7
:102B080005E04FF0C609F9E74FF0C309F6E713B03F
:102B1800BDE8F08F445A0000F0B58C4606461746CB
:102B280072B60A4803680133FDD0084D03600FCD23
:102B380034460FC40FCD0FC40FCD0FC42B682360CC
:102B4800C6F814C0B76162B6F0BD00BF8809FF1FA0
:102B5800F8B507460D46B1B172B68C6A2CB938463D
:102B68002946FFF749FC62B6F8BD2368002BF6D06A
:102B78000026666122463846294600F0E2FA2660B9
:102B8800E663246CF1E7F8BD38B50446FFF71AFD93
:102B9800B0B9237D451CC0B2834207D904EB80033A
:102BA8002046D96CFFF70BFE2846F2E772B660683C
:102BB80020B10568FFF79EFB2846F9E7606062B61A
:102BC80038BD2DE9F04107460D461646984672B6BF
:102BD800FFF7F8FC62B600BB731E042B19D805F189
:102BE8000F034FF6FC701840FFF778FBA0B17C6824
:102BF8000CB9786004E023680BB11C46FBE7206041
:102C0800002280E844008560C8F800001046BDE84E
:102C1800F081C720BDE8F081C620BDE8F081000042
:102C28002DE9F04107468CB0CC20884616461D4653
:102C3800FFF754FB0446002856D00021CC2202F0AE
:102C4800B1FE0023A76084F80C806673A5736382C5
:102C580072B60123FA692260FC61E373134643B13B
:102C6800E07BD97B81420FD14B1CDBB2E3731B069F
:102C7800F4D594F90F30002B08DAFA6162B62046D1
:102C8800FFF738FB9A2530E01B68E8E762B6194E73
:102C98000FCE03AD0FC50FCE0FC533682B600023D1
:102CA8008DF82B30237B0394384603A904F11C02CA
:102CB8008DF82C3000F0DFFA054620B12046FFF7EA
:102CC80019FB9B2511E00123A36104F12C03009358
:102CD80020464FF480712A46082300F0BAF80728E6
:102CE80003D0A561C82500E0C62528460CB0BDE87C
:102CF800F08100BF885A000070B503689D6843687A
:102D08001E7900EB8606044604360434B44204D027
:102D180028466168FFF71CFFF7E770BD70B50546E8
:102D280000F11C0672B6C46954B1A37B934205D165
:102D3800637B8B4202D1A368AB4201D02468F3E7DE
:102D480062B6E4B163681BB120460221FFF788FB35
:102D5800002323622846E169FFF7FAFE636813B18E
:102D68002046FFF711FF72B63368A34201D01E4612
:102D7800FAE7236833602046FFF7BCFA62B670BDF5
:102D8800F0B58FB005460C461646FFF71BFC002829
:102D98002DD101A8296A6A6AEF69FFF7BDFE637839
:102DA8000C2B14D801229A4041F24153134043B9E5
:102DB80013060CD5E279A379029643EA0223049319
:102DC80005E0E279A379039643EA02230593AB6908
:102DD8000D94082B01D9069B1BB9064B06930023BB
:102DE8000793A868394601AA00F0BAFA00E0C020A3
:102DF8000FB0F0BDE32E000070B504460D46164630
:102E080072B6FFF7DFFB10B162B6C02070BD256255
:102E1800666262B670BD13B50024019472B639B10A
:102E2800022902D88DF8042002E062B6C5200EE01F
:102E380001228DF801201A0A8DF800108DF8032060
:102E4800694600228DF80230FFF79AFF62B602B099
:102E580010BD13B572B680248DF8004006248DF895
:102E680001408DF802100C0A8DF80420110A1A0A84
:102E78008DF805108DF807206946049A8DF80340EF
:102E88008DF80630FFF77CFF62B602B010BD07B5BB
:102E980000220092019272B605218DF80110C37BC1
:102EA8008DF802306946FFF76BFF62B603B05DF834
:102EB80004FB07B500220092019272B609238DF82F
:102EC80001308DF802100B0A69468DF80330FFF7C0
:102ED80057FF62B603B05DF804FBF0B50468A66955
:102EE800054685B0A068092E00F29980DFE806F053
:102EF8009F051427355B6A84909994F833302B81A9
:102F0800294600F036F90546002858D10223A36166
:102F18002046FFF7BCFF42E0E37B2B77294600F011
:102F280030F9054600284AD10323A36104F12C0394
:102F3800009320464FF480712A4612232DE004F1B5
:102F480040030422A2610393009320464FF40071CA
:102F580000220923FFF77DFF2FE004AD04F14003B1
:102F680045F8043D94F8436094F84230052743EA55
:102F78000626A7612B46204631460122FFF721FE8F
:102F88000546002853D1039BA7610C330393009394
:102F980020464FF400712A463346FFF75AFF0728A8
:102FA80045D0A56143E0636803F10C020392062251
:102FB800A2612046597CFFF77CFF072837D0002301
:102FC800A36134E00723A361626800232375D17BE2
:102FD800937B43EA012312F80C1F5B1A0A440392FD
:102FE80053B103994A78042A02D1227D013222750D
:102FF8000A780AB19B1AF1E70823A361237C23B15D
:10300800002323742046032106E02046012103E023
:103018000923A36120460421FFF722FA07E00920CB
:10302800A061246A1CB10A9800902846A04705B000
:10303800F0BD13B500230093019372B601248DF8F7
:1030480000408DF802108DF804200B2469461A46BA
:103058008DF80140FFF794FE62B602B010BD2DE96D
:10306800F04105468EB00C461646984672B6FFF7F4
:10307800A9FA10B9AA69082A02D862B6C0201BE0CA
:10308800149AEF6901A84146FFF746FD94F900300C
:10309800E279002BA37904DA43EA02230396059325
:1030A80003E043EA022302960493A8680D94394684
:1030B80001AA00F055F962B60EB0BDE8F08138B546
:1030C80005464420FFF70AF9044680B1002144224E
:1030D80002F068FCAB6A13B92464AC6207E01A46D4
:1030E800116C994201D00A46FAE714642364204619
:1030F80038BD08B5836A1B680BB1984708BD1846E8
:1031080008BD08B5836A5B680BB1984708BD1846C7
:1031180008BD08B5836A9B680BB1984708BD184677
:1031280008BD08B5836ADB680BB1984708BD184627
:1031380008BD08B5836A1B690BB1984708BD1846D6
:1031480008BD08B5836A5B690BB1984708BD184686
:1031580008BD08B5836A1B6A0BB1984708BD1846B5
:1031680008BD08B5836ADB6A0BB1984708BD1846E5
:1031780008BD08B5836A1B6B0BB1984708BD184694
:1031880008BD08B5836A5B6B0BB1984708BD184644
:1031980008BD00002DE9F8430646382089469046C8
:1031A800FFF79CF82A4C00213822206002F0FAFB35
:1031B8002568002D49D00027EF6185F82C60C5F8F7
:1031C80014904FF4A860FFF789F868622068436A92
:1031D80013B9FFF78FF838E0184639464FF4A8625C
:1031E80002F0E0FB1B4A2368C6EBC60102EBC101F3
:1031F800996249B9586AFFF77DF82068FFF77AF8AD
:1032080062B68920BDE8F8833046FEF74EF850B123
:103218002368586AFFF76EF82068FFF76BF862B604
:10322800C420BDE8F8832068FFF763FF23680546DC
:1032380030B1586AFFF75EF82068FFF75BF801E0E5
:10324800C8F800302846BDE8F8838120BDE8F88337
:10325800C009FF1F505A000010B50C460AB1FFF70D
:1032680078FFA06A20B1036CA362FFF743F8F8E780
:1032780084F8240010BD2DE9F041804672B6436AF7
:103288000027382000FB073090F8240010B10137E0
:10329800182FF6D162B6172F1CD8382606FB07362A
:1032A80016600D460FCD34460FC40FCD0FC42B68E2
:1032B80023600024012386F82C40778486F8243084
:1032C80040463146FFF74DFF28B140463146224679
:1032D800FFF7C2FF9020BDE8F08110B502460C460A
:1032E80041B1836A72B65BB11846016859B1A1420F
:1032F80002D162B6002010BD006C9842F5D110468C
:10330800FFF7DDFE00B1046062B610BDB0F92230EF
:10331800182B2DE9F0410F4690461BDC0968FFF792
:10332800DCFF0646C8B13D4604460FCD0FC40FCD9D
:103338000FC495E80F0084E80F00396B21B106F13E
:103348003100082202F00AFB0720F063C8F8006089
:10335800BDE8F0818F20BDE8F0818120BDE8F081D3
:1033680037B505460C4672B60846114601AAFFF75E
:10337800CDFF072801D062B612E0019A002384F835
:103388002C3092F83130DB43C3F3C01382F830306D
:1033980028462146FFF7C5FE62B6002808BF072069
:1033A80003B030BD37B505460C4672B6084611461F
:1033B80001AAFFF7ABFF072801D062B608E028464C
:1033C8002146019AFFF7B5FE62B6002808BF07201C
:1033D80003B030BD10B50446FFF793FE606AFEF7F0
:1033E80089FF2046BDE81040FEF784BF37B5054683
:1033F8000C4672B60846114601AAFFF787FF072850
:1034080001D062B608E028462146019AFFF781FEFE
:1034180062B6002808BF072003B030BD024B012266
:103428001A70024B18607047044AFF1FD009FF1F2B
:10343800034B01221A70034A009B1360704700BFB8
:10344800044AFF1FD009FF1F0A4B1A6810B51C4613
:103458005AB9094B1B7813B9FDF70CFFF9E7206837
:10346800D0F1010038BF002010BD1B68072BF0D039
:10347800002010BDD009FF1F044AFF1F00B50E4AE7
:103488000E488FB000231370426800938023019385
:1034980005AB0293520124230393122102F0E002A8
:1034A8004FF41053FEF728FA054B1860FFF7CCFFCE
:1034B8000FB05DF804FB00BF044AFF1FE049FF1F7F
:1034C800D009FF1F1FB50B4B0B480021197042682C
:1034D800009152010B4601910291039102F0E00222
:1034E800FEF70AFA054B186005B05DF804EBFFF724
:1034F800ABBF00BF044AFF1FE049FF1FD009FF1FF1
:1035080070B5124B0646002411481C708AB04268F8
:1035180000940D468021019105A9029152011221C2
:10352800039102F0E00203214FF49053FEF7E4F90F
:10353800084B1860FFF788FF9DF8163003F00F035B
:1035480033709DF820302B700AB070BD044AFF1FFD
:10355800E049FF1FD009FF1F7FB503460B48002431
:1035680004700B484568029116026D0152020392DD
:10357800009601942A2105F0E002FEF7BDF9054BFB
:10358800186004B0BDE87040FFF75EBF044AFF1F33
:10359800E049FF1FD009FF1F13B50C4C226852B138
:1035A8000B4B0C4918680130801AD2B2FFF7D4FFD0
:1035B80048B1002323600DF106000DF10701FFF764
:1035C8009FFF002000E0012002B010BDC809FF1FC6
:1035D8001C00FF1FDC09FF1F7FB51C4A1C48002385
:1035E8001370426800938021019104A9029152014D
:1035F8000821039102F0E0022521FEF77DF9154B21
:103608001860FFF721FF9DF811209DF81030120473
:1036180042EA03629DF813301A439DF8123042EAD9
:1036280003220D4B1A609DF815209DF814301204E2
:1036380042EA03629DF817301A439DF8163042EAB1
:103648000322064B1A6007B05DF804FB044AFF1F0B
:10365800E049FF1FD009FF1FCC09FF1F084AFF1FC1
:10366800F7B5444D2B6806461BB91F2002F0E8F851
:103678002860414A2B68936017460BB9052077E00C
:103688003E4C23681BB90D2002F0DAF82060206850
:10369800F860394C0028F1D0A2682A6000210D2278
:1036A80002F080F9A06800211F2202F07BF9204671
:1036B8000021242202F076F92B68A3602F4B666064
:1036C8001B68E3602E4B23602E4B23612E4C012395
:1036D8002370FFF7D3FE254608B9012048E00324EC
:1036E800FFF7F0FE20B9631E13F0FF04F5D0F7E7EB
:1036F800264B234800221A700DF10701244AFEF7D1
:103708008DF8244B1860FFF79FFE0028E5D0FFF7DF
:10371800D9FE0028E1D00DF105000DF10601FFF7F3
:10372800EFFE0028D9D0FFF7A9FE0028D5D00DF16B
:1037380005000DF10601FFF7E3FE0028CDD0FFF7E5
:103748004BFF0028C9D0FFF7BDFE0028C5D00DF1FA
:1037580005000DF10601FFF7D3FE0028BDD0FFF7E5
:103768003BFF0028B9D00C4B012200201A602870BA
:1037780003B0F0BDDC49FF1FE049FF1FC409FF1F6C
:103788001C4AFF1F25340000D409FF1F044AFF1FED
:1037980039340000D009FF1FD809FF1F7FB50E4636
:1037A80015461C46FFF7F8FE0E4B0F4800221A700C
:1037B8004268029623020093640280235201019317
:1037C800282102F0E0022B460394FEF795F8074BF8
:1037D8001860FFF739FED0F1010038BF002004B0AF
:1037E80070BD00BF044AFF1FE049FF1FD009FF1F3B
:1037F80010B9024B1878704701207047D409FF1F91
:10380800D0F1010038BF002070470000013A10B520
:10381800154B032A24D8DFE802F002170215134AD1
:10382800012414601B68104AE3B903239060D16037
:10383800146013609068D1681032FFF721F80C4BC0
:10384800186010BD04220CE0084A002111601B68B2
:10385800054A3BB105239160D1601360116010BD2A
:1038680000221A6010BD00BF0C4AFF1F2C4AFF1F20
:10387800644CFF1F00B5ADF5097D0146012268467D
:1038880000F066FFFFF7BCFF18B1684601F03EF88C
:1038980001200DF5097D5DF804FB08B5012200F053
:1038A80057FFFFF7ADFF003018BF012008BD01F03A
:1038B8002DB807B501AB00F08FFFBDF8040003B0C9
:1038C8005DF804FB012A38B505460C4604D005D33B
:1038D800022A0ED1836800E0C3681C44002C08DB70
:1038E8002846214601F019F8A868031B5842584198
:1038F80038BD002038BD000038B5002383F3138895
:103908000020014600F014FF134B4FF000725A607C
:1039180001F060FE00F57A7085B2104B1A681C46FB
:1039280032B1FDF7A7FC01F055FE281A0304F4D5BF
:1039380023680B4B186808B1FFF74CFD00212022C3
:10394800084802F02FF80020FDF762F80648BDE8A5
:103958003840FDF75BB800BF00F10F402C4AFF1F4D
:103968005C4CFF1F0C4AFF1F604CFF1F2DE9F04104
:103978000120FDF74DF800285DD03048FDF745F8E7
:10398800012383F313882E4B2E4F2F4DDFF8C88069
:10399800002450223C6083F849234FF400729A6057
:1039A80020464FF480612A462C60FFF7F3FB064659
:1039B800C8F8000010B184F3138808E02868234988
:1039C800FEF7F3FEC8F8000030B186F31388FFF75E
:1039D80093FF0020BDE8F08180F3138801F0FAFD21
:1039E80000F5E16084B2FDF745FC3B682BB901F0B6
:1039F800F1FD201A0204F6D5E9E701F0EBFD00F528
:103A08007A7084B2FDF736FC114B1B68042B05D085
:103A180001F0E0FD201A0304F4D5D8E70020FFF7F1
:103A28001FFE0028D3D10B4900F082FEFFF7E8FE05
:103A38000028CCD00120BDE8F08100BF604CFF1FFA
:103A480000E100E02C4AFF1F5C4CFF1FAC5A00004D
:103A58000C4AFF1F304AFF1F644CFF1F400806D066
:103A6800044B054A01280CBF104618467047034806
:103A7800704700BF00C00A4000D0024000C00240AA
:103A88002DE9F04F81468BB0FFF7E8FF4FEA590365
:103A9800012B3FD023D3022B40F00081814B5A6D7C
:103AA80022F4E0625A655A6D42F400725A65DA6D82
:103AB80022F4E062DA65DA6D42F40072DA659A6D32
:103AC80022F4E0629A659A6D42F400729A65DA6DA2
:103AD80042F00302DA65744A41F230033EE0734B68
:103AE8001A6822F4E0621A601A681A601A6822F4E6
:103AF800E0621A601A681A601A6822F4E0621A60B2
:103B08001A681A601A6842F003021A60664A41F29B
:103B18003C0323E0634BDA6A22F4E062DA62DA6A91
:103B280042F40072DA625A6C22F4E0625A645A6C07
:103B380042F400725A641A6C22F4E0621A641A6C35
:103B480042F400721A645A6C42F003025A64564AEC
:103B580041F23C03D15841F4005102E0D15841F4FC
:103B6800805109F00105D1500024514B046000EB4D
:103B7800850503604FF06053EB604FF0010A4FF08A
:103B8800000B6FF00048069405940AF1FF33DBB28E
:103B980008930026F3B20993464B47489A5D0021E3
:103BA800002301F01DFE00FB0BF30AFB0131A0FB13
:103BB8000A23CDE902230B4403930794C446002744
:103BC8003E4BCDF804C033F81720DDE9020100238D
:103BD80001F006FE3A4BDDF804C08046A0F59800D7
:103BE800A0F59640403863440028B8BF4042002BF7
:103BF800B8BF5B429842FCB202DBE046079C03E098
:103C08000999089A069105920137102F02D0079456
:103C1800C446D5E70136042EBCD11AF1010A4BF18E
:103C2800000BBBF1000F08BFBAF1030FADD1EB6871
:103C3800069923F00F03EB60EA68059B04F00F0474
:103C480014430A0402F44032002B14BF4FF000431F
:103C5800002314431C431B4BEC6013F80920530941
:103C680003F1807101F57F51890102F01F020120E3
:103C7800904048604C6903F5802349331B0312B216
:103C88002043486153F8221021F4E06143F82210E0
:103C980053F8221041F4807143F822100BB0BDE8AC
:103CA800F08F00BF00A00440007004400090044062
:103CB80000300080D65A0000006CDC02DA5A00009E
:103CC800C0B4B3FFD05A0000074B1A5C530903F184
:103CD800807303F57F539B0102F01F02012101FA53
:103CE80002F29A60704700BFD05A0000074B1A5C76
:103CF800530903F1807303F57F539B0102F01F0200
:103D0800012101FA02F25A60704700BFD05A000040
:103D180010B5044604F00104FFF7A0FE240744F0A0
:103D2800FF044463C36A002BFCDA4FF00043C3620C
:103D3800806BC0B210BD38B504460D46FFF78EFE45
:103D480004F0010445EA04754563C36A002BFCDAF4
:103D5800836B4FF00043C36238BD08B5002001F003
:103D6800FFFBBDE80840FCF795BE000010B5FCF766
:103D780063FEFCF781FE01F093FB044C08B90323B2
:103D880002E001F089FA0123237010BD684CFF1F7F
:103D980070B5174D2B78012B2E4628D1154C0020D5
:103DA8002146FC2201F09CFB18B9FFF7D6FF03233C
:103DB80006E0002001F0CEFB20B9FFF7CEFF02237A
:103DC8002B7070BD2378032B11D1E28802F1080310
:103DD800984204D0FFF7C1FF0323337070BDD4F8B5
:103DE800020004F1080101F063FA0028F2D070BD66
:103DF800684CFF1F694CFF1F014B1878704700BFC4
:103E0800684CFF1F7F2816D931B1FF2812D80A4BFA
:103E1800803833F810007047074A32F81120824280
:103E28008BB203D001318029F6D10B4603F1800013
:103E3800C0B2704700207047DA5C00000023064AD1
:103E480032F8132032B1904201D00133F7E7034A28
:103E580032F81300704700BFFA5A0000DA5D00001C
:103E68000268C3699278490A0433B1FBF2F1186811
:103E780030B1814202D3091A0833F8E75868084478
:103E8800704708B580B1036873B11A7862B1D988F0
:103E98008288914208D15878FFF7AAFC10F0010FE8
:103EA8000CBF0020032008BD092008BDCA7E8B7EF8
:103EB800032843EA022305D1487D0A7D42EA00220D
:103EC80043EA02431846704738B5836A9942044664
:103ED8000D460BD0407804F12C012A460123FFF748
:103EE8005DFC08B9A56238BD012038BD002038BD89
:103EF80010B504460A46407804F12C010123FFF767
:103F08004DFC80BB94F82A3294F82B2243EA022213
:103F1800174B12B29A4228D194F8642094F865306D
:103F2800120442EA036294F862301A4394F8633048
:103F380042EA03220F4B22F07F429A4216D094F8AD
:103F4800800094F88120000440EA026094F87E2002
:103F5800104394F87F2040EA022020F07F40C01AE6
:103F680018BF012010BD032010BD022010BD00BFE6
:103F780055AAFFFF464154002DE9F04103681D781A
:103F8800303D092D05D85A783A2A02D10233036008
:103F980001E07E4B1D7800230B60002D40F0E98086
:103FA8007B4B1C68002C00F0E7800C6023784BB931
:103FB800002020706070FFF753FB10F0010540F0FF
:103FC800DE8007E06078FFF713FCC207F0D42846CC
:103FD800BDE8F08120462946FFF78AFF012817D15E
:103FE80094F8EE3113B90D20BDE8F08194F8F4513E
:103FF80094F8F5312D0445EA036594F8F2311D4330
:1040080094F8F33145EA032520462946FFF770FF67
:10401800032800F0B7800028E5D194F8382094F8F8
:10402800373043EA0223B3F5007FDCD194F84360CC
:1040380094F8423053EA06260DD194F8526094F869
:104048005330360446EA036694F850301E4394F819
:10405800513046EA032694F83C006661431E012B62
:10406800E070C0D894F83910A1700029BBD04B1E5D
:104078000B42B8D194F83D3094F83E2043EA02222E
:1040880013072281AFD194F8407094F83F3053EA77
:1040980007230DD194F84E3094F84F701B0443EA6F
:1040A800076394F84C703B4394F84D7043EA072338
:1040B80094F83B8094F83A7057EA082893D000FBAC
:1040C80006FC08EB12176744BB428CD3DB1BB3FB1F
:1040D800F1F3002B87D040F6F5718B4206D94FF6E5
:1040E800F57083428CBF0320022000E0012005EB1D
:1040F80008010233A56103283D442361E16165623B
:1041080013D1002A7FF46FAF94F85A2094F85B100B
:10411800120442EA016294F858100A4394F85910BC
:1041280042EA012222629B0010E0002A3FF45BAFC2
:1041380002284FEA430218BFD218614418BF03F09F
:10414800010321620CBF134603EB520303F2FF1372
:10415800B6EB532FFFF447AF0E4A207013880020A8
:1041680001339BB220711380E380A062E060BDE858
:10417800F0810B20BDE8F0810C20BDE8F081032020
:10418800BDE8F0810120BDE8F08100BF654DFF1F4B
:10419800AC4DFF1FA84DFF1F03690239023B99422E
:1041A8003DBF8278436A02FB013000207047012935
:1041B800F8B504460D465CD90369994259D203788B
:1041C800022B27D0032B37D0012B4FD101EB5106FF
:1041D800C16901EB5621FFF777FE002846D1C6F3E7
:1041E8000803E16923440136204601EB562193F880
:1041F8002C70FFF769FE002838D1C6F3080634444E
:10420800EB0794F82C0047EA00204CBF0009C0F3E4
:104218000B00F8BDC16901EB1521FFF755FE28BB5E
:104228006D0005F4FF7563192C4493F82C3094F84D
:104238002D0043EA0020F8BDC16901EBD511FFF755
:1042480043FE98B9AD0005F4FE7563192C339A78CE
:10425800D8785B782C44000640EA024040EA032004
:1042680094F82C30184320F07040F8BD4FF0FF3020
:10427800F8BD0120F8BD70B5C5880135ADB204465A
:104288000DB9042070BD0369002BFAD015F00F0694
:104298001CD1C16801330361006819B90389AB42B5
:1042A800EFD913E08378013B13EA15130ED1FFF71A
:1042B8007EFF0128014611D9431C11D020680369EB
:1042C8009942DED2E160FFF767FF20612368E5804D
:1042D80003EB46132C336361002070BD022070BDD0
:1042E800012070BD816838B501294FF000030446EC
:1042F800C38001D1022038BD05682B699942F9D2E3
:1043080061B92B78032B01D1296A39B90023E360FD
:104318002B89002BEED02B6A236113E0AB7863B9AD
:104328002068FFF744FF431C01460FD00128E1D95C
:1043380023681B699842F3D3DCE7E1602846FFF75E
:104348002BFF20612C356561002038BD012038BD68
:104358002DE9F74F0B782F2B0446884601D05C2BAC
:1043680003D108F10108002301E00368DB68A360BA
:1043780098F800301F2B43D82046FFF7B3FF0023DF
:104388006361D1E15C2B3BD0D4F81C9000235D1C09
:10439800721912F8010C1F2839D81F288CBF002564
:1043A8000425012B1E4690464DD1B9F800202E2A2F
:1043B80051D1002229F81320A1699A422CBF20204C
:1043C8002E20885401320B2AF6D1A36945F0200526
:1043D800DD722046FFF786FF002800F00181A369FF
:1043E800DB7A002845D0042840F09E8113F0200F86
:1043F80003F0040341D00022A2606261002B3AD18D
:10440800464608F1010833782F2BBBD1F8E72F284F
:10441800C3D05C28C1D0212D00F0E0800121FFF736
:10442800F1FC002800F0DA807F2806D8A04A12F8AC
:10443800013F13B18342FAD1D0E009EB450323F8D9
:10444800020C2B46A3E7022B04D1B9F802202E2A2E
:1044580001D1AAE71E4609EB430304E033F8022D15
:10446800202A03D1013E002EF8D1B7E02E2AF9D038
:1044780014E05A0706D5002056E1002B14BF04208B
:10448800052051E16169CB7ADB0605D523681878E8
:10449800FFF70CFDA060B3E7052045E1002329F8EC
:1044A8001630A16909EB46022020C85401330B2BB2
:1044B800FAD1002339F81310202901D10133F9E783
:1044C8002E29FBD023B145F0030501E0013E03D0BE
:1044D80032F8021D2E29F9D14FF0000B4FF0080ACF
:1044E8005F4639F813005A1C00284AD0202804D007
:1044F8002E2806D1B24200F0128145F0030513467A
:10450800EFE7D34502D2B24215D108E1BAF10B0F59
:1045180004D145F003054FF00B0A32E0B24202D055
:1045280045F003052DD8BF00FFB232464FF00B0A05
:104538004FF0080BE3E77F280CD900210092FFF722
:1045480061FC009A18B15B4B184410F8800C45F0D8
:10455800020528B1584911F8013F2BB18342FAD11D
:1045680045F003055F2006E0A0F141039BB2192B3B
:104578002AD847F00207A36903F80B000BF1010BD7
:10458800BDE7A3691A78E52A04BF05221A70BAF1B3
:10459800080F04BFBF00FFB207F00C030C2B03D0B9
:1045A80007F00302032A01D145F00205AA0709D43E
:1045B80007F00307012F08BF45F01005042B08BFBB
:1045C80045F00805A36903E7A0F161039BB2192B25
:1045D800D1D8203847F0010780B2CCE70620A3E005
:1045E8004FF0FF094D4620682169FFF76DFC002850
:1045F8007FF4F5AE66693378002B00F08B80F17A92
:10460800E52B01F03F027DD00F0702D50F2A79D1A3
:1046180001E00F2A54D1E269002A74D0580606D561
:1046280003F0BF05E38896F80D90238401E0AB42C0
:1046380068D1737B4B4565D1377827F04007013F38
:104648000D235F434FF0010A4FF0000B1B4B1BF883
:104658000330F118F35C487843EA0020BAF1000F00
:1046680012D00092FFF7EAFB1F2F8246009A49D822
:104678007B1C32F817000193FFF7E0FB82459DE8A9
:104688000C003FD11F4603E04FF6FF73984239D123
:104698000BF1010BBBF10D0FD8D1337859063BD57F
:1046A800BAF1000F38D032F81730002B34D029E097
:1046B800B95F0000CA5F0000C25F00004A600000E6
:1046C80075B902460346D90141EA5303B15C013288
:1046D80051FA83F30B2ADBB2F5D199453FF47FAE4B
:1046E8004FF6FF73A2692384D37A13F0010309D12B
:1046F800F15C0133D51815F8015C8D4202D10B2B02
:10470800F6D16CE6FF252046FFF7B5FD00283FF4FB
:104718006AAF64E6042062E6013DEDB2F3E7BAF160
:104728000B0F7FF400AFF4E603B0BDE8F08F00BFD5
:1047380048B9064A136803B1187009B100230B7011
:104748001160002070470B20704700BFAC4DFF1F61
:10475800F0B58FB0174601910446D0B1002303602D
:1047680005A901A8FFF708FC002831D102AB0B937B
:1047780005A8184B01990C93FFF7EAFD0A9D38BB71
:104788004DB1EB7A03F0100303F0FF062BB10420C0
:104798001EE009201CE006201AE007F00107A771B7
:1047A800059F29463878FFF781FB2061AB7FEA7FB8
:1047B8001B0443EA02632A7F13436A7FA66043EA25
:1047C8000223E360FB88A661E6612760A380304688
:1047D8000FB0F0BD664DFF1F2DE9F84F9846002336
:1047E800C8F8003004460E461746FFF74AFB002873
:1047F80040F08A80A379190600F18280DA0740F137
:104808008280E168A368CD1AAF4238BF3D46002DCB
:1048180073D0A168C1F30803002B53D1206890F826
:1048280002A00AF1FF3A0AEA512A1AF0FF0A10D147
:1048380009B9206908E0E3691BB12046FFF710FBBE
:1048480002E06169FFF7B3FC012809D9431C31D0A4
:104858006061D4F800B061695846FFF79DFC20B943
:10486800A37963F07F03A3714AE05FEA552900EB5F
:104878000A0713D09BF802309BF8010009EB0A02E3
:104888009A4288BFCAEB030931463A465FFA89F370
:10489800FEF784FF70B94FEA492223E0A369BB42BF
:1048A8000FD09BF8010004F120013A460123FEF7DE
:1048B80075FF30B1A37963F07F03A3710120BDE8D0
:1048C800F88FA761A368C3F30803C3F50072203308
:1048D800954238BF2A4623440020195C31540130E0
:1048E8009042FAD1A3681344A360D8F80030134467
:1048F8001644C8F80030AD1A89E72846BDE8F88F95
:104908000220BDE8F88F0720BDE8F88F10B50446EF
:10491800FFF7B7FA00B9206010BD2DE9F04704464B
:104928000D46FFF7AEFA002840F0C98094F80680DB
:1049380018F0800F4FD1E369002B5FD0691C31D18B
:104948002769D3F800A01E1D022517B3B9464FF0FA
:10495800000820684946FFF72AFC012808F10108E9
:1049680040F28A80421C00F09F8009F10109484505
:1049780001D18146EDE70235554504D8334643F861
:10498800088B77601E4623681B69984201D2074648
:10499800DCE7E36955451D6000F290800020306037
:1049A800BDE8F087E3689D4228BF1D46A56015B99C
:1049B8000020BDE8F0876F1E39462046FFF750FA01
:1049C8002668606101463046FFF7E6FB30B968F0BB
:1049D8007F0884F806800220BDE8F087C5F3080543
:1049E800B378002DE4D05D1E05EA5725A369054478
:1049F8009D42DDD0707804F1200150E0E2689542D4
:104A080028BF1546A268A3600DB900253BE02368BE
:104A18009E7876026AB1531E691EB1FBF6F1B3FBAC
:104A2800F6F2914205D372421340A360ED1A616910
:104A380001E0216961610029E7D0B54211D92068F8
:104A4800FFF7B5FB431C01462ED0012814D9236873
:104A58001B69984210D2A36860613344A360AD1B00
:104A6800EBE7A3682B44A360C5F30803002BCCD065
:104A78002068FFF791FB20B9A37963F07F03A37146
:104A8800A9E700EB5525A368C3F30803002B8FD0D3
:104A9800A3699D428CD0214651F8203B58782A467C
:104AA8000123FEF77BFE30B1A37963F07F03A37186
:104AB8000120BDE8F087A561BDE8F0871120BDE8B9
:104AC800F08710B50446C4F307410320FFF733F914
:104AD800C4F307210320FFF72EF9E1B20320BDE854
:104AE8001040FFF728B908B50320FFF7EDF80320B9
:104AF8000621FFF720F90320BDE80840FFF7F6B8C4
:104B080008B5FFF7F0FF0320FFF7DEF803200121C7
:104B1800FFF711F903200021FFF70DF90320BDE885
:104B28000840FFF7E3B810B504460320FFF7CCF8B8
:104B380003200146FFF7FFF82046BDE81040FFF7C5
:104B4800C0BF10B50446FFF7CEFF0320FFF7BCF83F
:104B580003200221FFF7EFF82046BDE81040FFF7D9
:104B6800B0BF10B50446FFF7BEFF0320FFF7ACF84F
:104B780003202021FFF7DFF82046FFF7A2FF0320DC
:104B8800BDE81040FFF7B2B808B50320FFF79CF85E
:104B98000320AB21FFF7CFF80320FFF7A7F81E206B
:104BA800BDE8084000F010BE08B50320FEF768FF16
:104BB800FFF7EAFFFFF7A4FFBDE80840FFF7A0BF33
:104BC80038B5054600F006FD05440320FFF77CF8DC
:104BD80005210320FFF7AFF80320FFF799F80446F3
:104BE8000320FFF783F8A20601D5002038BDE307AC
:104BF80005D500F0EFFC401B0028E6DBF5E70120B7
:104C080038BD4FF4FA70FFF7DBBFF8B505460F461D
:104C1800161804460123B44216D013B12046FFF7F4
:104C280090FF7B1B0320195D0134FFF784F814F013
:104C3800FF0F07D10320FFF759F8FFF7E2FF00281D
:104C4800E8D10CE00023E6E743B90320FFF74EF86C
:104C5800FFF7D7FF003018BF0120F8BD0120F8BDCD
:104C680070B50D461646FFF75EFF2C460320FFF78A
:104C78004FF804F8010BAB199C42F7D10320BDE8AB
:104C88007040FFF733B808B50520FFF71DF8052079
:104C98000621FFF750F80520BDE80840FFF726B8C1
:104CA80010B504460520FFF70FF805200321FFF78C
:104CB80042F8C4F307410520FFF73DF8C4F3072184
:104CC8000520FFF738F8E1B20520BDE81040FFF7EE
:104CD80032B810B50446FFF7D6FF0520FEF7F4FFFB
:104CE80005200221FFF727F8C4F307410520FFF745
:104CF80022F8C4F307210520FFF71DF8E1B20520CB
:104D0800BDE81040FFF717B808B50520FEF7DCFF2F
:104D18004FF4E17000F058FD05200421FFF70BF86F
:104D28000520BDE80840FEF7E1BF08B50520FEF7FD
:104D3800A7FEFFF7E9FFFFF7A6FF0520FEF7C4FF70
:104D480005200121FEF7F7FF05200021FEF7F3FFFC
:104D58000520BDE80840FEF7C9BF70B50D461646E8
:104D6800FFF7B7FF2C4614F8011B0520FEF7E3FFF9
:104D7800AB199C42F7D10520BDE87040FEF7B6BFDD
:104D880070B50D461646FFF78BFF2C460520FEF73B
:104D9800BFFF04F8010BAB199C42F7D10520BDE811
:104DA8007040FEF7A3BF38B50D461446FFF791FFD4
:104DB80005202946FEF7BFFF013CF9D10520BDE8D3
:104DC8003840FEF793BF000000230749CA18595816
:104DD800884202D35168884204D91433B3F5827FDC
:104DE800F3D1014A10467047586000001FB5094BBF
:104DF80000930369024693E8030001AC84E80300CA
:104E08009068694620F070401022FFF7A6FF04B0B2
:104E180010BD00BFCDAB341203695A68013210B51A
:104E280004460DD000221A608068A2891030FF2144
:104E38001202FFF7B8FF2046BDE81040FFF7D6BFC3
:104E480010BD70B50446806800F1100620694568F9
:104E5800701B084420F0704011461A46FFF77DFF8A
:104E68002369012220461A60BDE87040FFF7BEBFE3
:104E780003692DE9F0411D68012D064649D15C689A
:104E8800B0F80C80631C01D1002543E08068103025
:104E9800FFF706FF04EB08280127444526D0C4F392
:104EA8000B032BB16FB124F07040FFF74AFE08E006
:104EB80024F07040FFF755FEFFF7A3FE0028F1D15C
:104EC800E2E70520FEF724FF013401460320FEF740
:104ED80032FF14F0FF0F07D10320FEF707FFFFF79B
:104EE80090FE0028D8D1CFE70027D6E70520FEF7A7
:104EF800FDFE37B1336902221A603046FFF776FFAC
:104F080008E00320FEF7F2FEFFF77BFE0028F1D150
:104F1800BAE701252846BDE8F081F0B50F4687B00D
:104F2800144600211822064668461D4600F03AFD40
:104F38003A69B9895068631E00EB012184422B4409
:104F480001F1FF3206D2071BAF428DE8900021D94C
:104F5800019509E0944214D8029402989342C0F152
:104F680001000CD8034403936D460FCD34460FC49B
:104F780095E8030084E80300304607B0F0BD02441A
:104F880003928C4238BF0C460494C4F101042344B4
:104F98000593E9E79442F4D80290DEE738B503694F
:104FA800858904465868431C1ED020F07040FFF7DE
:104FB800BAFDA06810302D02FFF78BFE0320FEF724
:104FC800A7FE01460520FEF7B6FE013DF6D10320F7
:104FD800FEF78CFE0520FEF789FE236920461D603A
:104FE800BDE83840FFF702BF38BD00007FB51A4C56
:104FF80004F582766389022BA4F1040526D81022D1
:1050080060686946FFF7BCFE009B144A934254F857
:10501800042CE3680ED1019902290BD80299914218
:1050280008D32068814205D801AA92E8030083E8E2
:1050380003000BE0002183E806006389012B284662
:1050480002D1FFF7E9FE01E0FFF7A8FF1434B442EC
:10505800D0D104B070BD00BF5C600000CDAB34128D
:1050680038B503695B68994204460D4604D38289C2
:1050780003EB0223994214D32046FFF7F9FE88B1C7
:10508800A38922691B02B5FBF3F56B43E5895360DD
:10509800012D204603D1FFF7BFFE284638BDFFF794
:1050A8007DFF012038BD2DE9F843868936021D466B
:1050B800B1FBF6F7731A80460C46914606FB073794
:1050C8008DB1BD4238BF2F4621464046FFF7C8FF85
:1050D80021464A463B464046B9443C44ED1BFFF74F
:1050E800B0FE3746ECE7BDE8F88308B5FFF71DFECC
:1050F800FFF75AFDBDE80840FFF778BF2DE9F041FA
:1051080086B007460C461646FFF75EFEC389023B8B
:105118000546032B19D8DFE803F00208113B39468E
:1051280022463346FFF78DFE34E027F070402146D3
:10513800324606B0BDE8F041FFF767BD27F0704082
:1051480021463246FFF709FE24E03A4633466846D0
:105158002946FFF7E2FE039F019EDDF814802FB178
:1051680028460299A2193B46FFF76BFE2EB1284646
:10517800009922463346FFF796FFB8F1000F09D091
:10518800BA192846049922444346FFF78CFF01E0E8
:10519800002000E0012006B0BDE8F0812DE9F041D3
:1051A80086B007460C461646FFF70EFEC389023B3B
:1051B8000546032B23D8DFE803F0020B1019026918
:1051C8008368526810339B1AD81920F0704006E0A3
:1051D80027F07040214632463AE027F070402146D9
:1051E800324606B0BDE8F041FFF7CABD27F070406F
:1051F8002146324606B0BDE8F041FBF703BC3A460B
:10520800334668462946FFF788FE019E039FDDF86E
:10521800148036B10098214620F070403246FFF7DE
:105228001FFD67B1AB68029AD0182B695968103016
:10523800401A20F07040A1193A46FFF7A1FDB8F1D5
:10524800000F0AD00498B91920F070402144424652
:1052580006B0BDE8F041FFF703BD06B0BDE8F08138
:1052680030B505460C461346294622460248BDE895
:105278003040FBF78FBB00BF184EFF1F08B504492D
:105288000448FBF799FBB0F155035842584108BD53
:10529800FFFF0F00184EFF1F024803490022FBF7CB
:1052A800A6BB00BF184EFF1FFFFF0F00704700008E
:1052B80030B505460C461346294622460248BDE845
:1052C8003040FBF785BB00BF184EFF1F08B5FBF742
:1052D80003FC044A01231370034A1360034A136052
:1052E80008BD00BF204EFF1F1C4EFF1F284EFF1F8A
:1052F800F0B51A4C2378012B91B02DD1184E194FC7
:10530800336843B1184B1868FBF7BCFCFFF7CEFFB6
:1053180000233B6033603868124D69464022FFF72E
:105328009FFFB8B12B686846403340212B60FBF7DC
:10533800CBFC012805460FD002280BD10A4B1A686E
:1053480022B100221A600123336005E0FFF7A4FFB1
:10535800257001E00323237011B0F0BD204EFF1F1C
:105368001C4EFF1F244EFF1F284EFF1F014B1878AD
:10537800704700BF204EFF1FFFF780BF10B5042302
:10538800038202240023C375438284754389C28142
:1053980001608381012010BD2DE9F041022383754E
:1053A800C37D042B76D8DFE803F0032E5663710023
:1053B800032A04D8032383750020BDE8F0810B7805
:1053C800552B04D0052383750120BDE8F081B1F881
:1053D8000140CE7804EB14256D42EDB2AE4204D004
:1053E800062383750420BDE8F081C589A54201D252
:1053F8000423F6E7048200248482448201240431D1
:10540800131FC47500E01346448A068A361BB3424C
:10541800B8BF1E460024B442458A0FDA076811F85F
:1054280004C005F10108A0F8128007F805C0858AB4
:105438008CEA050CA0F814C00134ECE726EAE674FF
:105448001B1B2144048AAC4225D1848A644284828D
:105458000224C47500E01346002B1CDD858A0C78F5
:10546800B4EB152F0BD103240131013BC47500E0C7
:105478001346002B0FDD047D09788C4202D00721EA
:1054880081750AE00421013BC17500E013460A2139
:10549800817500E0134601898181D01ABDE8F08149
:1054A80010B5FEF763FA044688B10A48FEF7E2F938
:1054B80008B9FEF721FA08480649FEF7EEF904464E
:1054C80010B9FEF719FA02E0044B01241C702046BB
:1054D80010BD00BF5C610000484EFF1F444EFF1F17
:1054E80010B5194888B092B2FFF748FFA0B1174825
:1054F80069462022FEF7DDF9044610B369461248D2
:105508002246FFF749FFA042014609DA0F48091B66
:105518000222FEF7D7F918B90D4B02221A7011E0D2
:10552800094B9B7D022B07D3032BE0D90A2B03D110
:10553800074B04221A7004E0054B02221A7000205F
:1055480000E0012008B010BD2C4EFF1F484EFF1F81
:10555800444EFF1F014B588A704700BF2C4EFF1F57
:1055680008B50448FEF7A3F9FEF7C6F9024B002276
:105578001A7008BD484EFF1F444EFF1F094BF0220A
:1055880083F82320A3F54F634BF680325A6000223C
:105598009A601A6842F006021A601A6842F001021C
:1055A8001A60704700ED00E06846084B20F00701DC
:1055B8001B68074B8D4601B51A88013292B21A80D2
:1055C800FBF721FABDE801408546704710E000E08E
:1055D8006850FF1F014B188880B270476850FF1F42
:1055E800064B9A7842F008029A70054A41F238034D
:1055F800D15841F47851D150FBF75EBC00D0074038
:105608000070044088B0036800934368019383687E
:105618000293C368039303690493436905938369F9
:105628000693C369079308B07047684620F00701DE
:105638008D4601B5BDE8014085467047684620F0B3
:1056480007018D461EF0040F0CBFEFF30880EFF33F
:1056580009808169004A10470D560000FEE7684638
:1056680020F007018D46FEE7684620F007018D46C9
:10567800FEE7684620F007018D46FEE7EFF3138248
:10568800012383F31388064B4CF22051D9814DF640
:105698002811D9811021198082F31388704700BF1F
:1056A80000200540FFF7EABF704700001E491F4869
:1056B8000B6923F4E06310B50B610B6943F4807345
:1056C8000B611B4B1A6B22F4E0621A631A6B42F4EB
:1056D80080721A63DA6A22F4E062DA62DA6A42F401
:1056E8008072DA62426922F010024261114A5469FA
:1056F80024F480545461546924F4006454610C699E
:1057080044F003040C61196B41F003011963D96A71
:1057180041F00301D962102383604FF480539360F2
:105728004FF40063936010BD00D0044000F10F40B7
:1057380000C00440C0F00F4038B5214D022000F0F1
:1057480043F82B69D80634D51E4C2369D90432D5C1
:1057580023691A0531D5636943F4805363610220D4
:1057680000F032F82B6913F0100F636923F48053AB
:10577800636101D1412038BD636943F4006363610B
:10578800022000F021F82B69DB0605D4636923F4B5
:1057980000636361462038BD236913F4805F636941
:1057A80023F4006308BF4420636118BF4FF48040AE
:1057B80038BD4A2038BD402038BD482038BD00BF1C
:1057C80000F10F40C0F00F401022002330B1134603
:1057D800013B7FF4FDAF0138FFF7F8BF70470000C9
:1057E8002DE9F0004FF000044FF000054FF00106DE
:1057F8004FF000078B4208BF824209D892185B41DC
:1058080002D2B6197F41F5D95FEA33034FEA320273
:10581800994208BF904205D3801A61EB0301A4198D
:1058280045EB07057F085FEA360603D25B084FEAB7
:105838003202EDE702460B4620462946F0BC704787
:1058480038B5044600F0E6F804F1130121F00F0121
:105858001B4B1A68002A2ED053688B4214D109E0DA
:1058680043688B4201D0024611E012B1036813600D
:1058780004E002461368124803601046044644F8E0
:10588800041B00F0C9F819E04FF0FF3400259942D5
:1058980003D29C4284BF1C46154610680028DFD1FD
:1058A8004DB16B685B1A6B60631AEC18E95000F035
:1058B800B3F8043402E000F0AFF80024204638BD05
:1058C8002000FF1F70B50446002844D000F0A2F85D
:1058D80054F8040C211F35D01F4B1A6812B191429D
:1058E80007D832E01C4B1960002344F8043C2060C0
:1058F80028E013681BB1994204D91A46F9E71546FE
:105908001E4601E015461E4644F8046C20600DB1A1
:10591800296001E0104D29604BB10D189D4206D158
:1059280023686D682B4423600B5844F8043C4AB143
:105938005368D018814205D121680B44536054F84C
:10594800043C136000F068F870BD44F8042C206033
:1059580013460022DEE770BD2000FF1F844640EAA0
:10596800010313F0030F40F01080242AC0F00D80CB
:105978002DE9F00FB1E8F80FA0E8F80FA2F1240222
:10598800242ABFF4F7AFBDE8F00F002A00F0078023
:1059980011F8013B00F8013B013A7FF4F9AF60468A
:1059A800704700BF8446002A00F0328010F0030FD1
:1059B80000F0078000F8011B013A00F02980FFF78A
:1059C800F5BF282AC0F01F80A2F128022DE9F00FA8
:1059D80001F0FF0141EA012141EA014141EA016187
:1059E8000B460C460D460E460F46884689468A46A3
:1059F8008B46A0E8FA0F283ABFF4FBAFBDE8F00FDA
:105A0800283200F0058000F8011B013A7FF4FBAF53
:105A180060467047704700BF704700BF0000000035
:105A280001B40248844601BC604700BF0100FF1F63
:105A3800791400003E00080450FF00FF0000000039
:105A480000000000000000000D1E00007D1900008D
:105A5800E5190000191A0000FF190000311A0000AA
:105A68009519000000000000E51D000099190000CC
:105A780000000000AD190000000000000000000058
:105A88000000000000000000400000000F000000BF
:105A980000000000000000000000000000000000FE
:105AA8000001000000000000080450001538000044
:105AB800490D0030080650001538000000000000AD
:105AC80000000000000000000000002A003402036B
:105AD800050702000400060008001000200040002E
:105AE80080000001000200040008001000200040AF
:105AF8000080610062006300640065006600670062
:105B0800680069006A006B006C006D006E006F0031
:105B180070007100720073007400750076007700E1
:105B2800780079007A00A100A200A300A500AC00CB
:105B3800AF00E000E100E200E300E400E500E60079
:105B4800E700E800E900EA00EB00EC00ED00EE00F9
:105B5800EF00F000F100F200F300F400F500F600A9
:105B6800F800F900FA00FB00FC00FD00FE00FF0051
:105B7800010103010501070109010B010D010F01D5
:105B8800110113011501170119011B011D011F0145
:105B9800210123012501270129012B012D012F01B5
:105BA80031013301350137013A013C013E01400121
:105BB80042014401460148014B014D014F01510189
:105BC80053015501570159015B015D015F016101F5
:105BD80063016501670169016B016D016F01710165
:105BE8007301750177017A017C017E019201B1038D
:105BF800B203B303B403B503B603B703B803B903D9
:105C0800BA03BB03BC03BD03BE03BF03C003C10388
:105C1800C303C403C503C603C703C803C903CA0330
:105C280030043104320433043404350436043704B0
:105C3800380439043A043B043C043D043E043F0460
:105C48004004410442044304440445044604470410
:105C5800480449044A044B044C044D044E044F04C0
:105C68005104520453045404550456045704580468
:105C780059045A045B045C045E045F0470217121BA
:105C88007221732174217521762177217821792158
:105C98007A217B217C217D217E217F2141FF42FFCA
:105CA80043FF44FF45FF46FF47FF48FF49FF4AFFC0
:105CB8004BFF4CFF4DFF4EFF4FFF50FF51FF52FF70
:105CC80053FF54FF55FF56FF57FF58FF59FF5AFF20
:105CD8000000C700FC00E900E200E400E000E50085
:105CE800E700EA00EB00E800EF00EE00EC00C4007B
:105CF800C500C900E600C600F400F600F200FB008B
:105D0800F900FF00D600DC00A200A300A500A72030
:105D18009201E100ED00F300FA00F100D100AA00C1
:105D2800BA00BF001023AC00BD00BC00A100AB004E
:105D3800BB009125922593250225242561256225FE
:105D4800562555256325512557255D255C255B2559
:105D58001025142534252C251C2500253C255E25D9
:105D68005F255A25542569256625602550256C250B
:105D78006725682564256525592558255225532505
:105D88006B256A2518250C25882584258C259025C2
:105D98008025B103DF009303C003A303C303B50049
:105DA800C403A6039803A903B4031E22C603B503BC
:105DB80029226122B1006522642220232123F700D1
:105DC8004822B0001922B7001A227F20B200A0256D
:105DD800A00041004200430044004500460047003F
:105DE800480049004A004B004C004D004E004F004F
:105DF80050005100520053005400550056005700FF
:105E0800580059005A002100E0FFE1FFE5FFE2FFDA
:105E1800E3FFC000C100C200C300C400C500C60043
:105E2800C700C800C900CA00CB00CC00CD00CE0016
:105E3800CF00D000D100D200D300D400D500D600C6
:105E4800D800D900DA00DB00DC00DD00DE007801D4
:105E5800000102010401060108010A010C010E01FA
:105E6800100112011401160118011A011C011E016A
:105E7800200122012401260128012A012C012E01DA
:105E8800300132013401360139013B013D013F0146
:105E980041014301450147014A014C014E015001AE
:105EA80052015401560158015A015C015E0160011A
:105EB80062016401660168016A016C016E0170018A
:105EC80072017401760179017B017D0191019103D1
:105ED80092039303940395039603970398039903F6
:105EE8009A039B039C039D039E039F03A003A103A6
:105EF800A303A403A503A603A703A803A903AA034E
:105F080010041104120413041404150416041704CD
:105F1800180419041A041B041C041D041E041F047D
:105F2800200421042204230424042504260427042D
:105F3800280429042A042B042C042D042E042F04DD
:105F48000104020403040404050406040704080405
:105F580009040A040B040C040E040F0460216121D7
:105F680062216321642165216621672168216921F5
:105F78006A216B216C216D216E216F2121FF22FF87
:105F880023FF24FF25FF26FF27FF28FF29FF2AFFDD
:105F98002BFF2CFF2DFF2EFF2FFF30FF31FF32FF8D
:105FA80033FF34FF35FF36FF37FF38FF39FF3AFF3D
:105FB8000000222A3A3C3E3F7C7F002B2C3B3D5B75
:105FC8005D00809A90418E418F80454545494949F9
:105FD8008E8F9092924F994F555559999A9B9C9DA7
:105FE8009E9F41494F55A5A5A6A7A8A9AAABAC2134
:105FF800AEAFB0B1B2B3B4B5B6B7B8B9BABBBCBD41
:10600800BEBFC0C1C2C3C4C5C6C7C8C9CACBCCCD30
:10601800CECFD0D1D2D3D4D5D6D7D8D9DADBDCDD20
:10602800DEDFE0E1E2E3E4E5E6E7E8E9EAEBECED10
:10603800EEEFF0F1F2F3F4F5F6F7F8F9FAFBFCFD00
:10604800FEFF01030507090E10121416181C1E0086
:1060580000000000FFFF0000000000000001020037
:10606800B04DFF1F00000100FF1F010010000100DC
:1060780020000200B84DFF1F00200100FF1F020092
:106088002020010000010400C04DFF1F0020020075
:10609800FF1F11003020020010000000C84DFF1F34
:1060A80000201100FFFF1F00403002001000010017
:1060B800D04DFF1F00002000FFDF2E0050400200DF
:1060C80010000100D84DFF1F00E02E00FF1F7E00CA
:1060D8006050020010000100E04DFF1F00207E000C
:1060E800FFBF7E007060020010000100E84DFF1F36
:1060F80000C07E00FFCF7E0080700200100002000A
:10610800F04DFF1F00D07E00FFDF7E000000000082
:1061180000000300F84DFF1F000000D01F0000D052
:106128000000000000000500004EFF1F0000008076
:10613800FFFF03800000000000000400084EFF1F5E
:10614800000000C0FFFF7FC0908002001000000028
:0F615800104EFF1F4261743246772E62696E004F
:10616800044B1A7842F080021A701A781206FCD58D
:1061780070470000000002400A000000FFFFFFFF18
:046188006C50FF1F39
:0400000300000625CE
:00000001FF
